:020000040800F2
:10000000880600205D010008310400082F04000864
:1000100000000000000000000000000000000000E0
:10002000000000000000000000000000A105000822
:1000300000000000000000008504000881060008A0
:100040006F010008000000006F0100086F01000848
:100050006F0100086F0100086F0100086F010008C0
:10006000000000006F0100086F0100086F01000828
:100070006F0100086F0100086F0100080000000018
:100080006F01000800000000000000006F01000880
:100090006F0100086F0100086F0100086F01000880
:1000A0006F0100086F0100086F0100081D070008BC
:1000B0006F01000800F002F800F040F80CA030C812
:1000C000083824182D18A246671EAB4654465D46D4
:1000D000AC4201D100F032F87E460F3E0FCCB6465E
:1000E0000126334200D0FB1AA246AB4633431847E1
:1000F0006408000084080000103A02D378C878C170
:10010000FAD8520701D330C830C101D504680C6059
:10011000704700000023002400250026103A01D378
:1001200078C1FBD8520700D330C100D50B607047AF
:100130001FB5C046C0461FBD10B510BD00F0DAF8AF
:100140001146FFF7F5FF00F0BFFB00F0F2F803B433
:10015000FFF7F2FF03BC00F0F7F800000748804704
:1001600007480047FEE7FEE7FEE7FEE7FEE7FEE79B
:1001700004480549054A064B70470000BD060008C3
:10018000B5000008880000208806002088020020B2
:1001900088020020002203098B422CD3030A8B42E1
:1001A00011D300239C464EE003460B433CD400226F
:1001B00043088B4231D303098B421CD3030A8B4281
:1001C00001D394463FE0C3098B4201D3CB01C01A4F
:1001D000524183098B4201D38B01C01A524143091A
:1001E0008B4201D34B01C01A524103098B4201D308
:1001F0000B01C01A5241C3088B4201D3CB00C01A75
:10020000524183088B4201D38B00C01A52414308EC
:100210008B4201D34B00C01A5241411A00D2014611
:100220005241104670475DE0CA0F00D049420310AA
:1002300000D34042534000229C4603098B422DD3F9
:10024000030A8B4212D3FC22890112BA030A8B42A1
:100250000CD3890192118B4208D3890192118B42F0
:1002600004D389013AD0921100E08909C3098B4275
:1002700001D3CB01C01A524183098B4201D38B01B8
:10028000C01A524143098B4201D34B01C01A52415B
:1002900003098B4201D30B01C01A5241C3088B42A0
:1002A00001D3CB00C01A524183088B4201D38B008B
:1002B000C01A5241D9D243088B4201D34B00C01A15
:1002C0005241411A00D20146634652415B1010462A
:1002D00001D34042002B00D54942704763465B1072
:1002E00000D3404201B50020C046C04602BD704761
:1002F00070477047754600F023F8AE460500694622
:100300005346C008C000854618B020B5FFF730FF3F
:1003100060BC00274908B6460026C0C5C0C5C0C598
:10032000C0C5C0C5C0C5C0C5C0C5403D49008D469B
:1003300070470446C046C0462046FFF708FF00004D
:10034000004870472800002001491820ABBEFEE796
:1003500026000200704700001CB50121C80400F00F
:1003600093F82120000200900120694608710022C4
:100370008A71C87103204871014800F003F81CBD60
:1003800000080048F0B50022012423460D68934080
:100390001D409D422AD10D79012D01D0022D12D18F
:1003A000876855000326AE40B74387604E79AE405C
:1003B00085682E43866085889D43858085888B79F6
:1003C00093401D438580066855000323AB409E4340
:1003D00006600E790768AE403E430660C6689E43DD
:1003E000C660CB79AB40C5682B43C360521C102A52
:1003F000CBD3F0BD4B07DB0E9A40C90810B589007E
:100400000818016A0F249C40A1430162016A11434C
:10041000016210BD0246928A00200A4200D00120EB
:100420007047002A01D08161704701857047FEE75F
:100430007047000030B5837801210278002B15D079
:1004400094080E4BA400E41823689207D50EFF22EF
:10045000AA40934342789207120EAA401A432260A0
:100460000078C006C00E8140054804E0D006C00EEA
:10047000814003488030016030BD000000E400E0AE
:1004800000E100E070470000044A0029516901D0F2
:10049000014300E0814351617047000000100240B9
:1004A000044A0029916901D0014300E08143916130
:1004B0007047000000100240F8B5334D04466868EC
:1004C0000C21324E084003D0042801D0082801D066
:1004D000266012E06968686803228902D2030F0F60
:1004E0001040BF1C00281CD0E86A0107090F3046E5
:1004F000491CFFF74FFE784320606868244B0006D4
:10050000000F1A5C20680146D14061606A6852059C
:10051000520F9A5CD140A1602A6BD20505D41D4AC6
:1005200009E01D4847432760E7E76A68520401D4A1
:100530004A0800E08A08E2602A6B5306174A03D48F
:10054000164B1233236100E022612B6BDB0601D4D2
:10055000666100E060612B6B9B070FD0296B8907F8
:10056000890F01290CD0286B8007800F022809D041
:10057000286BC043800700D1A661F8BDA161F8BD1A
:10058000A061F8BDA261F8BD0010024000127A001F
:1005900018000020809FD50000093D000080000069
:1005A0007047000010B50C487D21C9000068FFF7B6
:1005B000F1FD0A49401E88420CD8094948610948A2
:1005C0000722C3691B021B0A4C042343C36100209A
:1005D00088610A6110BD000000000020FFFFFF00DD
:1005E00000E000E004ED00E01CB50021224801918C
:1005F0000091026801231B041A4302605B0005227C
:10060000120304681C400094019C641C0194009C2B
:10061000002C02D1019C9442F3D10268920328D5A8
:1006200001210091154A1121116041684160416822
:10063000416041687F22D2039143416041681122A9
:100640001204114341600168012212061143016046
:1006500001688901FCD541688908890041604168C9
:1006600002221143416041680907890F0229FAD12A
:100670001CBD00911CBD0000001002400020024083
:1006800070B50C497D220868D200401C0860904279
:100690000FD90020FF240860074D01342146284669
:1006A000FFF7B8FE0121081AC2B221462846FFF71B
:1006B000B8FE70BD140000200008004810B51448B2
:1006C00001680122114301604168124A11404160F2
:1006D0000168114A114001600168012292049143AE
:1006E000016041683F22120491434160C16A0909D7
:1006F0000901C162016BFF22543291430163416BD6
:1007000049084900416300218160FFF76DFF10BD7A
:10071000001002400CB8FF08FFFFF6FE10B50249BA
:10072000024800F00FF810BD050105000038014037
:100730000029016802D00122114301E04908490063
:100740000160704730B50A04130E012214460025DB
:100750008C40012B0ED0022B0ED08368090C234055
:10076000C0698A401040002B02D0002800D001252B
:10077000284630BD0368F1E74368EFE770B58AB0FB
:100780001B206946087202244C7201258D7202A852
:10079000FFF750FE01214804FFF776FE0121880390
:1007A000FFF77EFE0921CE0601223046FFF722FE2A
:1007B00001220A213046FFF71DFE0320400200906F
:1007C00069460C7100248C71CD710320487130464C
:1007D000FFF7D8FD4B200894C001049405940694BB
:1007E00003900C20084C079003A9204600F026F83F
:1007F00001212046FFF79CFF01220449204600F01A
:1008000007F80AB070BD000000380140050105007E
:1008100010B50B041C0E01238B40022C02D0032CBC
:1008200002D002E0001D00E008300168002A01D07B
:10083000194300E09943016010BD000030B5044643
:10084000006887B00D4640084000206060680321C2
:1008500009038843A9680143616020681749EA6871
:100860000840696811432A69024311432160A06866
:1008700003210902884369690143A1606846FFF7C3
:100880001BFE0F48844201D1069800E002982168BF
:100890000904296800D54000FFF77CFC2A6852084B
:1008A0008A4200D8401C2168090404D50107054A82
:1008B000490F10400843A08107B030BDF3E9FFFFA6
:1008C00000380140F0FF0000FFF76CFEFFF744FD29
:1008D000FFF754FF0AA000F033F80126114C76030D
:1008E000114D01272046401EFDD131462846FFF715
:1008F00091FD381AC2B231462846FFF792FDF1E762
:1009000046726573682050657273696D6D6F6E20F5
:10091000616C6C20726967687420726573657276A9
:1009200065642100FF340C00000800480349CA69CF
:100930001206FCD50149203108817047003801407A
:1009400000B5034602E05B1CFFF7F0FF18780028B3
:10095000F9D100BD74090008000000202800000043
:10096000F80000089C09000828000020600600002C
:1009700014010008006CDC02000000000000000010
:10098000010203040607080900000000000000003F
:0C09900001020304010203040607080929
:04000005080000B53A
:00000001FF
